{
    "contractName": "Cherish",
    "abi": [
        {
            "inputs": [],
            "stateMutability": "nonpayable",
            "type": "constructor"
        },
        {
            "anonymous": false,
            "inputs": [
                {
                    "indexed": true,
                    "internalType": "address",
                    "name": "owner",
                    "type": "address"
                },
                {
                    "indexed": true,
                    "internalType": "address",
                    "name": "spender",
                    "type": "address"
                },
                {
                    "indexed": false,
                    "internalType": "uint256",
                    "name": "value",
                    "type": "uint256"
                }
            ],
            "name": "Approval",
            "type": "event"
        },
        {
            "anonymous": false,
            "inputs": [
                {
                    "indexed": true,
                    "internalType": "address",
                    "name": "from",
                    "type": "address"
                },
                {
                    "indexed": true,
                    "internalType": "address",
                    "name": "to",
                    "type": "address"
                },
                {
                    "indexed": false,
                    "internalType": "uint256",
                    "name": "value",
                    "type": "uint256"
                }
            ],
            "name": "Transfer",
            "type": "event"
        },
        {
            "inputs": [
                {
                    "internalType": "address",
                    "name": "owner",
                    "type": "address"
                },
                {
                    "internalType": "address",
                    "name": "spender",
                    "type": "address"
                }
            ],
            "name": "allowance",
            "outputs": [
                {
                    "internalType": "uint256",
                    "name": "",
                    "type": "uint256"
                }
            ],
            "stateMutability": "view",
            "type": "function"
        },
        {
            "inputs": [
                {
                    "internalType": "address",
                    "name": "spender",
                    "type": "address"
                },
                {
                    "internalType": "uint256",
                    "name": "amount",
                    "type": "uint256"
                }
            ],
            "name": "approve",
            "outputs": [
                {
                    "internalType": "bool",
                    "name": "",
                    "type": "bool"
                }
            ],
            "stateMutability": "nonpayable",
            "type": "function"
        },
        {
            "inputs": [
                {
                    "internalType": "address",
                    "name": "account",
                    "type": "address"
                }
            ],
            "name": "balanceOf",
            "outputs": [
                {
                    "internalType": "uint256",
                    "name": "",
                    "type": "uint256"
                }
            ],
            "stateMutability": "view",
            "type": "function"
        },
        {
            "inputs": [
                {
                    "internalType": "address",
                    "name": "account",
                    "type": "address"
                },
                {
                    "internalType": "uint256",
                    "name": "amount",
                    "type": "uint256"
                }
            ],
            "name": "burnFrom",
            "outputs": [],
            "stateMutability": "nonpayable",
            "type": "function"
        },
        {
            "inputs": [],
            "name": "decimals",
            "outputs": [
                {
                    "internalType": "uint8",
                    "name": "",
                    "type": "uint8"
                }
            ],
            "stateMutability": "view",
            "type": "function"
        },
        {
            "inputs": [
                {
                    "internalType": "address",
                    "name": "spender",
                    "type": "address"
                },
                {
                    "internalType": "uint256",
                    "name": "subtractedValue",
                    "type": "uint256"
                }
            ],
            "name": "decreaseAllowance",
            "outputs": [
                {
                    "internalType": "bool",
                    "name": "",
                    "type": "bool"
                }
            ],
            "stateMutability": "nonpayable",
            "type": "function"
        },
        {
            "inputs": [
                {
                    "internalType": "address",
                    "name": "from",
                    "type": "address"
                },
                {
                    "internalType": "address",
                    "name": "to",
                    "type": "address"
                },
                {
                    "internalType": "uint256",
                    "name": "amount",
                    "type": "uint256"
                }
            ],
            "name": "forcedTransfer",
            "outputs": [],
            "stateMutability": "nonpayable",
            "type": "function"
        },
        {
            "inputs": [
                {
                    "internalType": "address",
                    "name": "spender",
                    "type": "address"
                },
                {
                    "internalType": "uint256",
                    "name": "addedValue",
                    "type": "uint256"
                }
            ],
            "name": "increaseAllowance",
            "outputs": [
                {
                    "internalType": "bool",
                    "name": "",
                    "type": "bool"
                }
            ],
            "stateMutability": "nonpayable",
            "type": "function"
        },
        {
            "inputs": [
                {
                    "internalType": "address",
                    "name": "account",
                    "type": "address"
                },
                {
                    "internalType": "uint256",
                    "name": "amount",
                    "type": "uint256"
                }
            ],
            "name": "mint",
            "outputs": [],
            "stateMutability": "nonpayable",
            "type": "function"
        },
        {
            "inputs": [],
            "name": "name",
            "outputs": [
                {
                    "internalType": "string",
                    "name": "",
                    "type": "string"
                }
            ],
            "stateMutability": "view",
            "type": "function"
        },
        {
            "inputs": [],
            "name": "owner",
            "outputs": [
                {
                    "internalType": "address",
                    "name": "",
                    "type": "address"
                }
            ],
            "stateMutability": "view",
            "type": "function"
        },
        {
            "inputs": [],
            "name": "symbol",
            "outputs": [
                {
                    "internalType": "string",
                    "name": "",
                    "type": "string"
                }
            ],
            "stateMutability": "view",
            "type": "function"
        },
        {
            "inputs": [],
            "name": "totalSupply",
            "outputs": [
                {
                    "internalType": "uint256",
                    "name": "",
                    "type": "uint256"
                }
            ],
            "stateMutability": "view",
            "type": "function"
        },
        {
            "inputs": [
                {
                    "internalType": "address",
                    "name": "recipient",
                    "type": "address"
                },
                {
                    "internalType": "uint256",
                    "name": "amount",
                    "type": "uint256"
                }
            ],
            "name": "transfer",
            "outputs": [
                {
                    "internalType": "bool",
                    "name": "",
                    "type": "bool"
                }
            ],
            "stateMutability": "nonpayable",
            "type": "function"
        },
        {
            "inputs": [
                {
                    "internalType": "address",
                    "name": "sender",
                    "type": "address"
                },
                {
                    "internalType": "address",
                    "name": "recipient",
                    "type": "address"
                },
                {
                    "internalType": "uint256",
                    "name": "amount",
                    "type": "uint256"
                }
            ],
            "name": "transferFrom",
            "outputs": [
                {
                    "internalType": "bool",
                    "name": "",
                    "type": "bool"
                }
            ],
            "stateMutability": "nonpayable",
            "type": "function"
        }
    ],
    "bytecode": "60806040523480156200001157600080fd5b506040805180820182526007815266086d0cae4d2e6d60cb1b6020808301918252835180850190945260048452634348525360e01b9084015281519192916200005d91600391620000a5565b50805162000073906004906020840190620000a5565b506200007f9150503390565b600580546001600160a01b0319166001600160a01b039290921691909117905562000188565b828054620000b3906200014b565b90600052602060002090601f016020900481019282620000d7576000855562000122565b82601f10620000f257805160ff191683800117855562000122565b8280016001018555821562000122579182015b828111156200012257825182559160200191906001019062000105565b506200013092915062000134565b5090565b5b8082111562000130576000815560010162000135565b600181811c908216806200016057607f821691505b602082108114156200018257634e487b7160e01b600052602260045260246000fd5b50919050565b610c9680620001986000396000f3fe608060405234801561001057600080fd5b50600436106100f55760003560e01c806370a08231116100975780639fc1d0e7116100665780639fc1d0e7146101f6578063a457c2d714610209578063a9059cbb1461021c578063dd62ed3e1461022f57600080fd5b806370a082311461019757806379cc6790146101c05780638da5cb5b146101d357806395d89b41146101ee57600080fd5b806323b872dd116100d357806323b872dd1461014d578063313ce56714610160578063395093511461016f57806340c10f191461018257600080fd5b806306fdde03146100fa578063095ea7b31461011857806318160ddd1461013b575b600080fd5b610102610268565b60405161010f9190610b58565b60405180910390f35b61012b610126366004610b2f565b6102fa565b604051901515815260200161010f565b6002545b60405190815260200161010f565b61012b61015b366004610af4565b610310565b6040516012815260200161010f565b61012b61017d366004610b2f565b6103c6565b610195610190366004610b2f565b6103fd565b005b61013f6101a5366004610aa1565b6001600160a01b031660009081526020819052604090205490565b6101956101ce366004610b2f565b610435565b6005546040516001600160a01b03909116815260200161010f565b610102610469565b610195610204366004610af4565b610478565b61012b610217366004610b2f565b6104b2565b61012b61022a366004610b2f565b61054d565b61013f61023d366004610ac2565b6001600160a01b03918216600090815260016020908152604080832093909416825291909152205490565b60606003805461027790610c0f565b80601f01602080910402602001604051908101604052809291908181526020018280546102a390610c0f565b80156102f05780601f106102c5576101008083540402835291602001916102f0565b820191906000526020600020905b8154815290600101906020018083116102d357829003601f168201915b5050505050905090565b600061030733848461055a565b50600192915050565b600061031d84848461067f565b6001600160a01b0384166000908152600160209081526040808320338452909152902054828110156103a75760405162461bcd60e51b815260206004820152602860248201527f45524332303a207472616e7366657220616d6f756e74206578636565647320616044820152676c6c6f77616e636560c01b60648201526084015b60405180910390fd5b6103bb85336103b68685610bf8565b61055a565b506001949350505050565b3360008181526001602090815260408083206001600160a01b038716845290915281205490916103079185906103b6908690610be0565b6005546001600160a01b031633146104275760405162461bcd60e51b815260040161039e90610bab565b6104318282610857565b5050565b6005546001600160a01b0316331461045f5760405162461bcd60e51b815260040161039e90610bab565b6104318282610936565b60606004805461027790610c0f565b6005546001600160a01b031633146104a25760405162461bcd60e51b815260040161039e90610bab565b6104ad83838361067f565b505050565b3360009081526001602090815260408083206001600160a01b0386168452909152812054828110156105345760405162461bcd60e51b815260206004820152602560248201527f45524332303a2064656372656173656420616c6c6f77616e63652062656c6f77604482015264207a65726f60d81b606482015260840161039e565b61054333856103b68685610bf8565b5060019392505050565b600061030733848461067f565b6001600160a01b0383166105bc5760405162461bcd60e51b8152602060048201526024808201527f45524332303a20617070726f76652066726f6d20746865207a65726f206164646044820152637265737360e01b606482015260840161039e565b6001600160a01b03821661061d5760405162461bcd60e51b815260206004820152602260248201527f45524332303a20617070726f766520746f20746865207a65726f206164647265604482015261737360f01b606482015260840161039e565b6001600160a01b0383811660008181526001602090815260408083209487168084529482529182902085905590518481527f8c5be1e5ebec7d5bd14f71427d1e84f3dd0314c0f7b2291e5b200ac8c7c3b92591015b60405180910390a3505050565b6001600160a01b0383166106e35760405162461bcd60e51b815260206004820152602560248201527f45524332303a207472616e736665722066726f6d20746865207a65726f206164604482015264647265737360d81b606482015260840161039e565b6001600160a01b0382166107455760405162461bcd60e51b815260206004820152602360248201527f45524332303a207472616e7366657220746f20746865207a65726f206164647260448201526265737360e81b606482015260840161039e565b6001600160a01b038316600090815260208190526040902054818110156107bd5760405162461bcd60e51b815260206004820152602660248201527f45524332303a207472616e7366657220616d6f756e7420657863656564732062604482015265616c616e636560d01b606482015260840161039e565b6107c78282610bf8565b6001600160a01b0380861660009081526020819052604080822093909355908516815290812080548492906107fd908490610be0565b92505081905550826001600160a01b0316846001600160a01b03167fddf252ad1be2c89b69c2b068fc378daa952ba7f163c4a11628f55a4df523b3ef8460405161084991815260200190565b60405180910390a350505050565b6001600160a01b0382166108ad5760405162461bcd60e51b815260206004820152601f60248201527f45524332303a206d696e7420746f20746865207a65726f206164647265737300604482015260640161039e565b80600260008282546108bf9190610be0565b90915550506001600160a01b038216600090815260208190526040812080548392906108ec908490610be0565b90915550506040518181526001600160a01b038316906000907fddf252ad1be2c89b69c2b068fc378daa952ba7f163c4a11628f55a4df523b3ef9060200160405180910390a35050565b6001600160a01b0382166109965760405162461bcd60e51b815260206004820152602160248201527f45524332303a206275726e2066726f6d20746865207a65726f206164647265736044820152607360f81b606482015260840161039e565b6001600160a01b03821660009081526020819052604090205481811015610a0a5760405162461bcd60e51b815260206004820152602260248201527f45524332303a206275726e20616d6f756e7420657863656564732062616c616e604482015261636560f01b606482015260840161039e565b610a148282610bf8565b6001600160a01b03841660009081526020819052604081209190915560028054849290610a42908490610bf8565b90915550506040518281526000906001600160a01b038516907fddf252ad1be2c89b69c2b068fc378daa952ba7f163c4a11628f55a4df523b3ef90602001610672565b80356001600160a01b0381168114610a9c57600080fd5b919050565b600060208284031215610ab2578081fd5b610abb82610a85565b9392505050565b60008060408385031215610ad4578081fd5b610add83610a85565b9150610aeb60208401610a85565b90509250929050565b600080600060608486031215610b08578081fd5b610b1184610a85565b9250610b1f60208501610a85565b9150604084013590509250925092565b60008060408385031215610b41578182fd5b610b4a83610a85565b946020939093013593505050565b6000602080835283518082850152825b81811015610b8457858101830151858201604001528201610b68565b81811115610b955783604083870101525b50601f01601f1916929092016040019392505050565b6020808252818101527f4f776e61626c653a2063616c6c6572206973206e6f7420746865206f776e6572604082015260600190565b60008219821115610bf357610bf3610c4a565b500190565b600082821015610c0a57610c0a610c4a565b500390565b600181811c90821680610c2357607f821691505b60208210811415610c4457634e487b7160e01b600052602260045260246000fd5b50919050565b634e487b7160e01b600052601160045260246000fdfea2646970667358221220c5565b757085b0135ea05c8e295877b77bd711d1881fa725b8880b0f993b7cbe64736f6c63430008040033",
    "sourcePath": "/home/viniciussslima/Documents/Aulas/Blockchain/cryptures-smart-contract/cherish.sol",
    "compiler": {
        "name": "solc",
        "version": "0.8.4+commit.c7e474f2"
    },
    "functionHashes": {
        "allowance(address,address)": "dd62ed3e",
        "approve(address,uint256)": "095ea7b3",
        "balanceOf(address)": "70a08231",
        "burnFrom(address,uint256)": "79cc6790",
        "decimals()": "313ce567",
        "decreaseAllowance(address,uint256)": "a457c2d7",
        "forcedTransfer(address,address,uint256)": "9fc1d0e7",
        "increaseAllowance(address,uint256)": "39509351",
        "mint(address,uint256)": "40c10f19",
        "name()": "06fdde03",
        "owner()": "8da5cb5b",
        "symbol()": "95d89b41",
        "totalSupply()": "18160ddd",
        "transfer(address,uint256)": "a9059cbb",
        "transferFrom(address,address,uint256)": "23b872dd"
    },
    "gasEstimates": {
        "creation": {
            "codeDepositCost": "644400",
            "executionCost": "infinite",
            "totalCost": "infinite"
        },
        "external": {
            "allowance(address,address)": "infinite",
            "approve(address,uint256)": "22543",
            "balanceOf(address)": "1263",
            "burnFrom(address,uint256)": "infinite",
            "decimals()": "222",
            "decreaseAllowance(address,uint256)": "23591",
            "forcedTransfer(address,address,uint256)": "infinite",
            "increaseAllowance(address,uint256)": "23602",
            "mint(address,uint256)": "infinite",
            "name()": "infinite",
            "owner()": "1068",
            "symbol()": "infinite",
            "totalSupply()": "1049",
            "transfer(address,uint256)": "44495",
            "transferFrom(address,address,uint256)": "infinite"
        }
    }
}