{
    "contractName": "CrypturesManager",
    "abi": [
        {
            "inputs": [],
            "stateMutability": "nonpayable",
            "type": "constructor"
        },
        {
            "inputs": [
                {
                    "internalType": "enum Cryptures.CrypturesType",
                    "name": "cryptureType",
                    "type": "uint8"
                }
            ],
            "name": "buyCrypture",
            "outputs": [],
            "stateMutability": "payable",
            "type": "function"
        },
        {
            "inputs": [
                {
                    "internalType": "enum Cryptures.CrypturesType",
                    "name": "cryptureType",
                    "type": "uint8"
                }
            ],
            "name": "buyCryptureWithToken",
            "outputs": [],
            "stateMutability": "nonpayable",
            "type": "function"
        },
        {
            "inputs": [],
            "name": "cherishol",
            "outputs": [
                {
                    "internalType": "contract Cherishol",
                    "name": "",
                    "type": "address"
                }
            ],
            "stateMutability": "view",
            "type": "function"
        },
        {
            "inputs": [],
            "name": "cryptures",
            "outputs": [
                {
                    "internalType": "contract Cryptures",
                    "name": "",
                    "type": "address"
                }
            ],
            "stateMutability": "view",
            "type": "function"
        },
        {
            "inputs": [
                {
                    "internalType": "uint256",
                    "name": "id",
                    "type": "uint256"
                }
            ],
            "name": "feedCrypture",
            "outputs": [],
            "stateMutability": "nonpayable",
            "type": "function"
        },
        {
            "inputs": [
                {
                    "internalType": "uint256",
                    "name": "ownCryptureId",
                    "type": "uint256"
                },
                {
                    "internalType": "uint256",
                    "name": "opponentCryptureId",
                    "type": "uint256"
                },
                {
                    "internalType": "uint256",
                    "name": "cherisholAmount",
                    "type": "uint256"
                }
            ],
            "name": "requestBattle",
            "outputs": [],
            "stateMutability": "nonpayable",
            "type": "function"
        },
        {
            "inputs": [
                {
                    "internalType": "uint256",
                    "name": "id",
                    "type": "uint256"
                }
            ],
            "name": "washCrypture",
            "outputs": [],
            "stateMutability": "nonpayable",
            "type": "function"
        }
    ],
    "bytecode": "608060405234801561001057600080fd5b5060405161001d906100dc565b604051809103906000f080158015610039573d6000803e3d6000fd5b50600080546001600160a01b0319166001600160a01b0392909216919091179055604051610066906100e9565b6020808252601f908201527f687474703a2f2f6c6f63616c686f73743a383030302f63727970747572652f006040820152606001604051809103906000f0801580156100b6573d6000803e3d6000fd5b50600180546001600160a01b0319166001600160a01b03929092169190911790556100f6565b610e3080610dc383390190565b6144f780611bf383390190565b610cbe806101056000396000f3fe6080604052600436106100705760003560e01c8063b7be60631161004e578063b7be6063146100d7578063c72b344d14610113578063d62277cb14610126578063ff5ee5941461014657600080fd5b8063128ddc0c1461007557806366acf65614610097578063745d2d3e146100b7575b600080fd5b34801561008157600080fd5b50610095610090366004610bb6565b610166565b005b3480156100a357600080fd5b506100956100b2366004610b67565b6107c3565b3480156100c357600080fd5b506100956100d2366004610b86565b61089e565b3480156100e357600080fd5b506000546100f7906001600160a01b031681565b6040516001600160a01b03909116815260200160405180910390f35b610095610121366004610b67565b610a57565b34801561013257600080fd5b506001546100f7906001600160a01b031681565b34801561015257600080fd5b50610095610161366004610b86565b610a6e565b6001546040516331a9108f60e11b8152600481018490526000916001600160a01b031690636352211e9060240160206040518083038186803b1580156101ab57600080fd5b505afa1580156101bf573d6000803e3d6000fd5b505050506040513d601f19601f820116820180604052508101906101e39190610b19565b9050336001546040516331a9108f60e11b8152600481018790526001600160a01b039283169290911690636352211e9060240160206040518083038186803b15801561022e57600080fd5b505afa158015610242573d6000803e3d6000fd5b505050506040513d601f19601f820116820180604052508101906102669190610b19565b6001600160a01b0316146102d85760405162461bcd60e51b815260206004820152602e60248201527f4552433732313a20796f7520646f206e6f74206f776e2074686520637279707460448201526d1d5c9948195cdc1958da599a595960921b60648201526084015b60405180910390fd5b6001600160a01b03811633141561034d5760405162461bcd60e51b815260206004820152603360248201527f4372797074757265734d616e616765723a20796f752063616e7420626174746c6044820152726520796f7572206f776e20637279707475726560681b60648201526084016102cf565b6000546001600160a01b03166370a08231336040516001600160e01b031960e084901b1681526001600160a01b03909116600482015260240160206040518083038186803b15801561039e57600080fd5b505afa1580156103b2573d6000803e3d6000fd5b505050506040513d601f19601f820116820180604052508101906103d69190610b9e565b82111561042f5760405162461bcd60e51b815260206004820152602160248201527f45524332303a2062696420616d6f756e7420657863656564732062616c616e636044820152606560f81b60648201526084016102cf565b3360009081526002602081815260408084206001600160a01b03861685528252928390208351606081018552815481526001820154928101929092529091015460ff1615801592820192909252906106f65760015460405163011ea11960e51b815260048101879052602481018690526000916001600160a01b0316906323d423209060440160206040518083038186803b1580156104cd57600080fd5b505afa1580156104e1573d6000803e3d6000fd5b505050506040513d601f19601f820116820180604052508101906105059190610b19565b90506001600160a01b03811661063957600054602083015160405163a9059cbb60e01b81526001600160a01b038681166004830152602482019290925291169063a9059cbb90604401602060405180830381600087803b15801561056857600080fd5b505af115801561057c573d6000803e3d6000fd5b505050506040513d601f19601f820116820180604052508101906105a09190610b47565b506000546001600160a01b031663a9059cbb336040516001600160e01b031960e084901b1681526001600160a01b03909116600482015260248101879052604401602060405180830381600087803b1580156105fb57600080fd5b505af115801561060f573d6000803e3d6000fd5b505050506040513d601f19601f820116820180604052508101906106339190610b47565b506106f0565b6000546001600160a01b031663a9059cbb82336001600160a01b0316846001600160a01b03161461066a5786610670565b84602001515b6040516001600160e01b031960e085901b1681526001600160a01b0390921660048301526024820152604401602060405180830381600087803b1580156106b657600080fd5b505af11580156106ca573d6000803e3d6000fd5b505050506040513d601f19601f820116820180604052508101906106ee9190610b47565b505b506107bc565b60408051606081018252868152602080820186815260018385018181526001600160a01b038881166000908152600280875288822033808452975288822097518855945193870193909355905194909201805460ff19169415159490941790935582548451639fc1d0e760e01b81526004810193909352306024840152604483018890529351931692639fc1d0e79260648084019391929182900301818387803b1580156107a357600080fd5b505af11580156107b7573d6000803e3d6000fd5b505050505b5050505050565b6000546001600160a01b03166379cc6790336040516001600160e01b031960e084901b1681526001600160a01b0390911660048201526801a055690d9db800006024820152604401600060405180830381600087803b15801561082557600080fd5b505af1158015610839573d6000803e3d6000fd5b50506001546001600160a01b0316915063691562a09050335b836040518363ffffffff1660e01b8152600401610870929190610be1565b600060405180830381600087803b15801561088a57600080fd5b505af11580156107bc573d6000803e3d6000fd5b60015460405163e6755ff960e01b8152600481018390526000916001600160a01b03169063e6755ff990602401602060405180830381600087803b1580156108e557600080fd5b505af11580156108f9573d6000803e3d6000fd5b505050506040513d601f19601f8201168201806040525081019061091d9190610b9e565b90506201518061092d8242610c5b565b11156109b1576000546001600160a01b03166340c10f19335b6040516001600160e01b031960e084901b1681526001600160a01b039091166004820152670de0b6b3a76400006024820152604401600060405180830381600087803b15801561099557600080fd5b505af11580156109a9573d6000803e3d6000fd5b505050505050565b6000620151806109c18342610c5b565b6109d390670de0b6b3a7640000610c3c565b6109dd9190610c1c565b6000549091506001600160a01b03166340c10f19336040516001600160e01b031960e084901b1681526001600160a01b03909116600482015260248101849052604401600060405180830381600087803b158015610a3a57600080fd5b505af1158015610a4e573d6000803e3d6000fd5b50505050505050565b6001546001600160a01b031663691562a033610852565b600154604051635a8fc7e960e11b8152600481018390526000916001600160a01b03169063b51f8fd290602401602060405180830381600087803b158015610ab557600080fd5b505af1158015610ac9573d6000803e3d6000fd5b505050506040513d601f19601f82011682018060405250810190610aed9190610b9e565b905062015180610afd8242610c5b565b106109b1576000546001600160a01b03166340c10f1933610946565b600060208284031215610b2a578081fd5b81516001600160a01b0381168114610b40578182fd5b9392505050565b600060208284031215610b58578081fd5b81518015158114610b40578182fd5b600060208284031215610b78578081fd5b813560048110610b40578182fd5b600060208284031215610b97578081fd5b5035919050565b600060208284031215610baf578081fd5b5051919050565b600080600060608486031215610bca578182fd5b505081359360208301359350604090920135919050565b6001600160a01b03831681526040810160048310610c0f57634e487b7160e01b600052602160045260246000fd5b8260208301529392505050565b600082610c3757634e487b7160e01b81526012600452602481fd5b500490565b6000816000190483118215151615610c5657610c56610c72565b500290565b600082821015610c6d57610c6d610c72565b500390565b634e487b7160e01b600052601160045260246000fdfea2646970667358221220b30613837678d09caec1349574b7ba07a32a9ca4f7764b4ee61f5040cd997f8364736f6c6343000804003360806040523480156200001157600080fd5b50604080518082018252600981526810da195c9a5cda1bdb60ba1b6020808301918252835180850190945260048452634348525360e01b9084015281519192916200005f91600391620000a7565b50805162000075906004906020840190620000a7565b50620000819150503390565b600580546001600160a01b0319166001600160a01b03929092169190911790556200018a565b828054620000b5906200014d565b90600052602060002090601f016020900481019282620000d9576000855562000124565b82601f10620000f457805160ff191683800117855562000124565b8280016001018555821562000124579182015b828111156200012457825182559160200191906001019062000107565b506200013292915062000136565b5090565b5b8082111562000132576000815560010162000137565b600181811c908216806200016257607f821691505b602082108114156200018457634e487b7160e01b600052602260045260246000fd5b50919050565b610c96806200019a6000396000f3fe608060405234801561001057600080fd5b50600436106100f55760003560e01c806370a08231116100975780639fc1d0e7116100665780639fc1d0e7146101f6578063a457c2d714610209578063a9059cbb1461021c578063dd62ed3e1461022f57600080fd5b806370a082311461019757806379cc6790146101c05780638da5cb5b146101d357806395d89b41146101ee57600080fd5b806323b872dd116100d357806323b872dd1461014d578063313ce56714610160578063395093511461016f57806340c10f191461018257600080fd5b806306fdde03146100fa578063095ea7b31461011857806318160ddd1461013b575b600080fd5b610102610268565b60405161010f9190610b58565b60405180910390f35b61012b610126366004610b2f565b6102fa565b604051901515815260200161010f565b6002545b60405190815260200161010f565b61012b61015b366004610af4565b610310565b6040516012815260200161010f565b61012b61017d366004610b2f565b6103c6565b610195610190366004610b2f565b6103fd565b005b61013f6101a5366004610aa1565b6001600160a01b031660009081526020819052604090205490565b6101956101ce366004610b2f565b610435565b6005546040516001600160a01b03909116815260200161010f565b610102610469565b610195610204366004610af4565b610478565b61012b610217366004610b2f565b6104b2565b61012b61022a366004610b2f565b61054d565b61013f61023d366004610ac2565b6001600160a01b03918216600090815260016020908152604080832093909416825291909152205490565b60606003805461027790610c0f565b80601f01602080910402602001604051908101604052809291908181526020018280546102a390610c0f565b80156102f05780601f106102c5576101008083540402835291602001916102f0565b820191906000526020600020905b8154815290600101906020018083116102d357829003601f168201915b5050505050905090565b600061030733848461055a565b50600192915050565b600061031d84848461067f565b6001600160a01b0384166000908152600160209081526040808320338452909152902054828110156103a75760405162461bcd60e51b815260206004820152602860248201527f45524332303a207472616e7366657220616d6f756e74206578636565647320616044820152676c6c6f77616e636560c01b60648201526084015b60405180910390fd5b6103bb85336103b68685610bf8565b61055a565b506001949350505050565b3360008181526001602090815260408083206001600160a01b038716845290915281205490916103079185906103b6908690610be0565b6005546001600160a01b031633146104275760405162461bcd60e51b815260040161039e90610bab565b6104318282610857565b5050565b6005546001600160a01b0316331461045f5760405162461bcd60e51b815260040161039e90610bab565b6104318282610936565b60606004805461027790610c0f565b6005546001600160a01b031633146104a25760405162461bcd60e51b815260040161039e90610bab565b6104ad83838361067f565b505050565b3360009081526001602090815260408083206001600160a01b0386168452909152812054828110156105345760405162461bcd60e51b815260206004820152602560248201527f45524332303a2064656372656173656420616c6c6f77616e63652062656c6f77604482015264207a65726f60d81b606482015260840161039e565b61054333856103b68685610bf8565b5060019392505050565b600061030733848461067f565b6001600160a01b0383166105bc5760405162461bcd60e51b8152602060048201526024808201527f45524332303a20617070726f76652066726f6d20746865207a65726f206164646044820152637265737360e01b606482015260840161039e565b6001600160a01b03821661061d5760405162461bcd60e51b815260206004820152602260248201527f45524332303a20617070726f766520746f20746865207a65726f206164647265604482015261737360f01b606482015260840161039e565b6001600160a01b0383811660008181526001602090815260408083209487168084529482529182902085905590518481527f8c5be1e5ebec7d5bd14f71427d1e84f3dd0314c0f7b2291e5b200ac8c7c3b92591015b60405180910390a3505050565b6001600160a01b0383166106e35760405162461bcd60e51b815260206004820152602560248201527f45524332303a207472616e736665722066726f6d20746865207a65726f206164604482015264647265737360d81b606482015260840161039e565b6001600160a01b0382166107455760405162461bcd60e51b815260206004820152602360248201527f45524332303a207472616e7366657220746f20746865207a65726f206164647260448201526265737360e81b606482015260840161039e565b6001600160a01b038316600090815260208190526040902054818110156107bd5760405162461bcd60e51b815260206004820152602660248201527f45524332303a207472616e7366657220616d6f756e7420657863656564732062604482015265616c616e636560d01b606482015260840161039e565b6107c78282610bf8565b6001600160a01b0380861660009081526020819052604080822093909355908516815290812080548492906107fd908490610be0565b92505081905550826001600160a01b0316846001600160a01b03167fddf252ad1be2c89b69c2b068fc378daa952ba7f163c4a11628f55a4df523b3ef8460405161084991815260200190565b60405180910390a350505050565b6001600160a01b0382166108ad5760405162461bcd60e51b815260206004820152601f60248201527f45524332303a206d696e7420746f20746865207a65726f206164647265737300604482015260640161039e565b80600260008282546108bf9190610be0565b90915550506001600160a01b038216600090815260208190526040812080548392906108ec908490610be0565b90915550506040518181526001600160a01b038316906000907fddf252ad1be2c89b69c2b068fc378daa952ba7f163c4a11628f55a4df523b3ef9060200160405180910390a35050565b6001600160a01b0382166109965760405162461bcd60e51b815260206004820152602160248201527f45524332303a206275726e2066726f6d20746865207a65726f206164647265736044820152607360f81b606482015260840161039e565b6001600160a01b03821660009081526020819052604090205481811015610a0a5760405162461bcd60e51b815260206004820152602260248201527f45524332303a206275726e20616d6f756e7420657863656564732062616c616e604482015261636560f01b606482015260840161039e565b610a148282610bf8565b6001600160a01b03841660009081526020819052604081209190915560028054849290610a42908490610bf8565b90915550506040518281526000906001600160a01b038516907fddf252ad1be2c89b69c2b068fc378daa952ba7f163c4a11628f55a4df523b3ef90602001610672565b80356001600160a01b0381168114610a9c57600080fd5b919050565b600060208284031215610ab2578081fd5b610abb82610a85565b9392505050565b60008060408385031215610ad4578081fd5b610add83610a85565b9150610aeb60208401610a85565b90509250929050565b600080600060608486031215610b08578081fd5b610b1184610a85565b9250610b1f60208501610a85565b9150604084013590509250925092565b60008060408385031215610b41578182fd5b610b4a83610a85565b946020939093013593505050565b6000602080835283518082850152825b81811015610b8457858101830151858201604001528201610b68565b81811115610b955783604083870101525b50601f01601f1916929092016040019392505050565b6020808252818101527f4f776e61626c653a2063616c6c6572206973206e6f7420746865206f776e6572604082015260600190565b60008219821115610bf357610bf3610c4a565b500190565b600082821015610c0a57610c0a610c4a565b500390565b600181811c90821680610c2357607f821691505b60208210811415610c4457634e487b7160e01b600052602260045260246000fd5b50919050565b634e487b7160e01b600052601160045260246000fdfea2646970667358221220bfa8db4c392b5fabc9b86f4d9bfe13c48e54b10edc8c5fffa12f7f32b8c6436e64736f6c6343000804003360806040523480156200001157600080fd5b50604051620044f7380380620044f7833981016040819052620000349162000ccb565b6040805180820182526008815267437279707475726560c01b60208083019182528351808501909452600484526310d4941560e21b908401528151919291620000809160009162000b3f565b5080516200009690600190602084019062000b3f565b50508151620000ae9150600b90602084019062000b3f565b50600c80546001600160a01b031916331790556040805160e0810182526002815281518083018352602d80825260c860208381019190915280840192909252835180850185526031808252605c828501819052858701929092528551808701875290815280840191909152606084015283518085018552604180825260bf8285018190526080860192909252855180870187529081528084019190915260a08401528351808501909452835260558382015260c082019290925260008052600d90915280517f81955a0a11e65eac625c29e8882660bae4e165a75d72780094acae8ece9a29ee8054909190829060ff19166001836003811115620001c257634e487b7160e01b600052602160045260246000fd5b021790555060208281015180516001808501919091559082015160028401556040808501518051600386015583015160048501556060850151805160058601558301516006850155608085015180516007860155830151600885015560a085015180516009860155830151600a85015560c0909401518051600b85015590910151600c90920191909155815160e08101909252819081526040805180820182526027815260bc6020828101919091528084019190915281518083018352603481526062818301528284015281518083018352602b8152605181830152606084015281518083018352603c815260708183015260808401528151808301835260328152605e8183015260a084015281518083019092526041825260798282015260c09092015260016000819052600d90915281517ffd54ff1ed53f34a900b24c5ba64f85761163b5d82d98a47b9bd80e45466993c580549092839160ff1916908360038111156200034257634e487b7160e01b600052602160045260246000fd5b02179055506020828101518051600184015581015160028301556040808401518051600385015582015160048401556060840151805160058501558201516006840155608084015180516007850155820151600884015560a084015180516009850155820151600a84015560c0909301518051600b8401550151600c90910155805160e081019091528060008152604080518082018252602c815260c6602082810191909152808401919091528151808301835260308152605a8183015282840152815180830183526041815260798183015260608401528151808301835260328152605e8183015260808401528151808301835282815260778183015260a08401528151808301909252602b825260518282015260c0909201526002600052600d905280517f10a81eed9d63d16face5e76357905348e6253d3394086026bb2bf2145d7cc2498054909190829060ff19166001836003811115620004b757634e487b7160e01b600052602160045260246000fd5b02179055506020828101518051600184810191909155908201516002808501919091556040808601518051600387015584015160048601556060860151805160058701558401516006860155608086015180516007870155840151600886015560a086015180516009870155840151600a86015560c0909501518051600b860155830151600c909401939093558351808301909452600080855292909252600f905262000586917fa74ba3945261e09fde15ba3db55005b205e61eeb4ad811ac0faa2b315bffeead9162000bce565b5060408051602080820190925260018082526000819052600f909252620005d0917f169f97de0d9a84d840042b17d3c6b9638b3d6fd9024c9eb0c7a306a17b49f88f919062000bce565b506040805160208082019092526002815260008052600f90915262000619907ff4803e074bd026baaf6ed2e288c9515f68c72fb7216eebdd7cae1718a53ec37590600162000bce565b506040805161010081018252600660c08201818152655461636b6c6560d01b60e08401908152908352600060208401819052938301939093526028606083015260646080830152602360a083015290916010916200067991839162000b3f565b50602082015160018083018054909160ff1990911690836003811115620006b057634e487b7160e01b600052602160045260246000fd5b021790555060408201518160010160016101000a81548160ff02191690836001811115620006ee57634e487b7160e01b600052602160045260246000fd5b0217905550606082015160028201556080820151600382015560a090910151600490910155604080516101008101909152600960c0820190815268056696e6520576869760bc1b60e08301528152602081016001815260200160008152602d6020820152606460408201526019606090910152601060016005020160008201518160000190805190602001906200078792919062000b3f565b50602082015160018083018054909160ff1990911690836003811115620007be57634e487b7160e01b600052602160045260246000fd5b021790555060408201518160010160016101000a81548160ff02191690836001811115620007fc57634e487b7160e01b600052602160045260246000fd5b021790555060608201516002808301919091556080830151600383015560a090920151600490910155604080516101008101909152600560c082019081526422b6b132b960d91b60e0830152815290602082019081526020016001815260286020820152606460408201526019606090910152601060026005020160008201518160000190805190602001906200089592919062000b3f565b50602082015160018083018054909160ff1990911690836003811115620008cc57634e487b7160e01b600052602160045260246000fd5b021790555060408201518160010160016101000a81548160ff021916908360018111156200090a57634e487b7160e01b600052602160045260246000fd5b021790555060608201516002820155608082015160038083019190915560a090920151600490910155604080516101008101909152600960c08201908152682bb0ba32b91023bab760b91b60e083015281529060208201908152602001600181526028602082015260646040820152601960609091015260106003600502016000820151816000019080519060200190620009a792919062000b3f565b50602082015160018083018054909160ff1990911690836003811115620009de57634e487b7160e01b600052602160045260246000fd5b021790555060408201518160010160016101000a81548160ff0219169083600181111562000a1c57634e487b7160e01b600052602160045260246000fd5b021790555060608201516002828101919091556080830151600383015560a0909201516004909101556040805180820190915260008082526001602080840191909152908390526024905262000a95917f47bb5529a97e2b401b32950f6360fbc9e3f4e70b887dc0f9b9ad1f7402ca11da919062000c11565b50604080518082019091526000808252600260208084018290526001909252602490915262000ae6917fbbbb3b1da0cb0951f34c5e9db4606f934b7367b5284f29163e9e6fe67e1e97d69162000c11565b5060408051808201909152600080825260036020808401919091529080526024905262000b37907fb7634ec2165a7280a285aac3ec10cf370eca86d8aa9d3243c90b2151434091ad90600262000c11565b505062000df4565b82805462000b4d9062000da1565b90600052602060002090601f01602090048101928262000b71576000855562000bbc565b82601f1062000b8c57805160ff191683800117855562000bbc565b8280016001018555821562000bbc579182015b8281111562000bbc57825182559160200191906001019062000b9f565b5062000bca92915062000cb4565b5090565b82805482825590600052602060002090810192821562000bbc579160200282015b8281111562000bbc578251829060ff1690559160200191906001019062000bef565b82805482825590600052602060002090601f0160209004810192821562000bbc5791602002820160005b8382111562000c7b57835183826101000a81548160ff021916908360ff160217905550926020019260010160208160000104928301926001030262000c3b565b801562000caa5782816101000a81549060ff021916905560010160208160000104928301926001030262000c7b565b505062000bca9291505b5b8082111562000bca576000815560010162000cb5565b6000602080838503121562000cde578182fd5b82516001600160401b038082111562000cf5578384fd5b818501915085601f83011262000d09578384fd5b81518181111562000d1e5762000d1e62000dde565b604051601f8201601f19908116603f0116810190838211818310171562000d495762000d4962000dde565b81604052828152888684870101111562000d61578687fd5b8693505b8284101562000d84578484018601518185018701529285019262000d65565b8284111562000d9557868684830101525b98975050505050505050565b600181811c9082168062000db657607f821691505b6020821081141562000dd857634e487b7160e01b600052602260045260246000fd5b50919050565b634e487b7160e01b600052604160045260246000fd5b6136f38062000e046000396000f3fe608060405234801561001057600080fd5b50600436106101a95760003560e01c806370a08231116100f9578063b51f8fd211610097578063d36c44b511610071578063d36c44b5146103c2578063d663a9cc146103e2578063e6755ff914610402578063e985e9c51461042a57600080fd5b8063b51f8fd214610374578063b88d4fde1461039c578063c87b56dd146103af57600080fd5b80638da5cb5b116100d35780638da5cb5b1461032857806395d89b4114610339578063a22cb46514610341578063aaad92681461035457600080fd5b806370a08231146102d557806375b42794146102e85780637fecdd991461030857600080fd5b806323d423201161016657806342966c681161014057806342966c68146102895780634f6ccce71461029c5780636352211e146102af578063691562a0146102c257600080fd5b806323d42320146102505780632f745c591461026357806342842e0e1461027657600080fd5b806301ffc9a7146101ae57806306fdde03146101d6578063081812fc146101eb578063095ea7b31461021657806318160ddd1461022b57806323b872dd1461023d575b600080fd5b6101c16101bc366004612e9f565b610466565b60405190151581526020015b60405180910390f35b6101de610477565b6040516101cd9190613141565b6101fe6101f9366004612f88565b610509565b6040516001600160a01b0390911681526020016101cd565b610229610224366004612e76565b6105a3565b005b6008545b6040519081526020016101cd565b61022961024b366004612d20565b6106b9565b6101fe61025e366004612fa0565b6106eb565b61022f610271366004612e76565b610c66565b610229610284366004612d20565b610cfc565b610229610297366004612f88565b610d17565b61022f6102aa366004612f88565b610d91565b6101fe6102bd366004612f88565b610e32565b6102296102d0366004612e4d565b610ea9565b61022f6102e3366004612cd4565b6114c4565b6102fb6102f6366004612f88565b61154b565b6040516101cd919061320a565b61031b610316366004612f88565b61166d565b6040516101cd9190613381565b600c546001600160a01b03166101fe565b6101de611791565b61022961034f366004612e13565b6117a0565b610367610362366004612f88565b611865565b6040516101cd91906132b1565b61022f610382366004612f88565b6000908152600e6020526040902060050180544290915590565b6102296103aa366004612d5b565b611a85565b6101de6103bd366004612f88565b611abd565b6103d56103d0366004612ed7565b611b98565b6040516101cd9190613427565b6103f56103f0366004612f88565b611e05565b6040516101cd91906131f7565b61022f610410366004612f88565b6000908152600e6020526040902060060180544290915590565b6101c1610438366004612cee565b6001600160a01b03918216600090815260056020908152604080832093909416825291909152205460ff1690565b600061047182611fc9565b92915050565b606060008054610486906135d5565b80601f01602080910402602001604051908101604052809291908181526020018280546104b2906135d5565b80156104ff5780601f106104d4576101008083540402835291602001916104ff565b820191906000526020600020905b8154815290600101906020018083116104e257829003601f168201915b5050505050905090565b6000818152600260205260408120546001600160a01b03166105875760405162461bcd60e51b815260206004820152602c60248201527f4552433732313a20617070726f76656420717565727920666f72206e6f6e657860448201526b34b9ba32b73a103a37b5b2b760a11b60648201526084015b60405180910390fd5b506000908152600460205260409020546001600160a01b031690565b60006105ae82610e32565b9050806001600160a01b0316836001600160a01b0316141561061c5760405162461bcd60e51b815260206004820152602160248201527f4552433732313a20617070726f76616c20746f2063757272656e74206f776e656044820152603960f91b606482015260840161057e565b336001600160a01b038216148061063857506106388133610438565b6106aa5760405162461bcd60e51b815260206004820152603860248201527f4552433732313a20617070726f76652063616c6c6572206973206e6f74206f7760448201527f6e6572206e6f7220617070726f76656420666f7220616c6c0000000000000000606482015260840161057e565b6106b48383611fee565b505050565b6106c4335b8261205c565b6106e05760405162461bcd60e51b815260040161057e906131a6565b6106b4838383612153565b6000806106f784611865565b9050600061070484611865565b610100808401519082015161016080840151908601519394509192909180821191141561077557600242336040516020016107409291906130e4565b6040516020818303038152906040528051906020012060001c610763919061362b565b1561076f576000610772565b60015b90505b60005b6064811015610c575781156109f057600080876101c0015182815181106107af57634e487b7160e01b600052603260045260246000fd5b6020026020010151905060006032600060018111156107de57634e487b7160e01b600052602160045260246000fd5b8360400151600181111561080257634e487b7160e01b600052602160045260246000fd5b1461082257886101a001518a610180015161081d9190613514565b610838565b8861014001518a61012001516108389190613514565b8360600151610847919061354a565b60058b60200151600261085a9190613569565b6108649190613528565b61086f9060026134ef565b60ff1661087c919061354a565b6108869190613514565b6108919060026134d7565b905061089d8187613592565b9550600086116108c0576108b08c610e32565b9950505050505050505050610471565b60009250876101c0015183815181106108e957634e487b7160e01b600052603260045260246000fd5b6020026020010151915060326000600181111561091657634e487b7160e01b600052602160045260246000fd5b8360400151600181111561093a57634e487b7160e01b600052602160045260246000fd5b1461095a57896101a001518961018001516109559190613514565b610970565b8961014001518961012001516109709190613514565b836060015161097f919061354a565b60058a6020015160026109929190613569565b61099c9190613528565b6109a79060026134ef565b60ff166109b4919061354a565b6109be9190613514565b6109c99060026134d7565b90506109d58188613592565b9650600087116109e8576108b08b610e32565b505050610c45565b600080866101c001518281518110610a1857634e487b7160e01b600052603260045260246000fd5b602002602001015190506000603260006001811115610a4757634e487b7160e01b600052602160045260246000fd5b83604001516001811115610a6b57634e487b7160e01b600052602160045260246000fd5b14610a8b57896101a00151896101800151610a869190613514565b610aa1565b896101400151896101200151610aa19190613514565b8360600151610ab0919061354a565b60058a602001516002610ac39190613569565b610acd9190613528565b610ad89060026134ef565b60ff16610ae5919061354a565b610aef9190613514565b610afa9060026134d7565b9050610b068188613592565b965060008711610b19576108b08b610e32565b60009250886101c001518381518110610b4257634e487b7160e01b600052603260045260246000fd5b60200260200101519150603260006001811115610b6f57634e487b7160e01b600052602160045260246000fd5b83604001516001811115610b9357634e487b7160e01b600052602160045260246000fd5b14610bb357886101a001518a6101800151610bae9190613514565b610bc9565b8861014001518a6101200151610bc99190613514565b8360600151610bd8919061354a565b60058b602001516002610beb9190613569565b610bf59190613528565b610c009060026134ef565b60ff16610c0d919061354a565b610c179190613514565b610c229060026134d7565b9050610c2e8187613592565b955060008611610c41576108b08c610e32565b5050505b80610c4f81613610565b915050610778565b50600098975050505050505050565b6000610c71836114c4565b8210610cd35760405162461bcd60e51b815260206004820152602b60248201527f455243373231456e756d657261626c653a206f776e657220696e646578206f7560448201526a74206f6620626f756e647360a81b606482015260840161057e565b506001600160a01b03919091166000908152600660209081526040808320938352929052205490565b6106b483838360405180602001604052806000815250611a85565b610d20336106be565b610d855760405162461bcd60e51b815260206004820152603060248201527f4552433732314275726e61626c653a2063616c6c6572206973206e6f74206f7760448201526f1b995c881b9bdc88185c1c1c9bdd995960821b606482015260840161057e565b610d8e816122fe565b50565b6000610d9c60085490565b8210610dff5760405162461bcd60e51b815260206004820152602c60248201527f455243373231456e756d657261626c653a20676c6f62616c20696e646578206f60448201526b7574206f6620626f756e647360a01b606482015260840161057e565b60088281548110610e2057634e487b7160e01b600052603260045260246000fd5b90600052602060002001549050919050565b6000818152600260205260408120546001600160a01b0316806104715760405162461bcd60e51b815260206004820152602960248201527f4552433732313a206f776e657220717565727920666f72206e6f6e657869737460448201526832b73a103a37b5b2b760b91b606482015260840161057e565b600c546001600160a01b03163314610f035760405162461bcd60e51b815260206004820181905260248201527f4f776e61626c653a2063616c6c6572206973206e6f7420746865206f776e6572604482015260640161057e565b6000610f0e600a5490565b9050610f1a83826123a5565b6003826003811115610f3c57634e487b7160e01b600052602160045260246000fd5b146111d0576000600f6000846003811115610f6757634e487b7160e01b600052602160045260246000fd5b6003811115610f8657634e487b7160e01b600052602160045260246000fd5b8152602001908152602001600020805490504233604051602001610fab9291906130e4565b6040516020818303038152906040528051906020012060001c610fce919061362b565b90506000600f6000856003811115610ff657634e487b7160e01b600052602160045260246000fd5b600381111561101557634e487b7160e01b600052602160045260246000fd5b8152602001908152602001600020828154811061104257634e487b7160e01b600052603260045260246000fd5b90600052602060002001549050604051806101000160405280828152602001600160ff168152602001600081526020016000815260200160008152602001428152602001428152602001602460008760038111156110b057634e487b7160e01b600052602160045260246000fd5b60038111156110cf57634e487b7160e01b600052602160045260246000fd5b815260200190815260200160002080548060200260200160405190810160405280929190818152602001828054801561114557602002820191906000526020600020906000905b825461010083900a900460ff168152602060019283018181049485019490930390920291018084116111165790505b5050509190925250506000848152600e6020908152604091829020835181558382015160018201805460ff191660ff909216919091179055918301516002830155606083015160038301556080830151600483015560a0830151600583015560c0830151600683015560e083015180516111c59260078501920190612a29565b5090505050506114b6565b6000600442336040516020016111e79291906130e4565b6040516020818303038152906040528051906020012060001c61120a919061362b565b600381111561122957634e487b7160e01b600052602160045260246000fd5b90506000600f600083600381111561125157634e487b7160e01b600052602160045260246000fd5b600381111561127057634e487b7160e01b600052602160045260246000fd5b81526020019081526020016000208054905042336040516020016112959291906130e4565b6040516020818303038152906040528051906020012060001c6112b8919061362b565b90506000600f60008460038111156112e057634e487b7160e01b600052602160045260246000fd5b60038111156112ff57634e487b7160e01b600052602160045260246000fd5b8152602001908152602001600020828154811061132c57634e487b7160e01b600052603260045260246000fd5b90600052602060002001549050604051806101000160405280828152602001600160ff1681526020016000815260200160008152602001600081526020014281526020014281526020016024600086600381111561139a57634e487b7160e01b600052602160045260246000fd5b60038111156113b957634e487b7160e01b600052602160045260246000fd5b815260200190815260200160002080548060200260200160405190810160405280929190818152602001828054801561142f57602002820191906000526020600020906000905b825461010083900a900460ff168152602060019283018181049485019490930390920291018084116114005790505b5050509190925250506000858152600e6020908152604091829020835181558382015160018201805460ff191660ff909216919091179055918301516002830155606083015160038301556080830151600483015560a0830151600583015560c0830151600683015560e083015180516114af9260078501920190612a29565b5050505050505b6106b4600a80546001019055565b60006001600160a01b03821661152f5760405162461bcd60e51b815260206004820152602a60248201527f4552433732313a2062616c616e636520717565727920666f7220746865207a65604482015269726f206164647265737360b01b606482015260840161057e565b506001600160a01b031660009081526003602052604090205490565b611553612acf565b6000828152600d602052604090819020815160e081019092528054829060ff16600381111561159257634e487b7160e01b600052602160045260246000fd5b60038111156115b157634e487b7160e01b600052602160045260246000fd5b81526040805180820182526001840154815260028401546020828101919091528084019190915281518083018352600385015481526004850154818301528284015281518083018352600585015481526006850154818301526060840152815180830183526007850154815260088501548183015260808401528151808301835260098501548152600a8501548183015260a08401528151808301909252600b8401548252600c909301549281019290925260c0015292915050565b6116b860405180610100016040528060008152602001600060ff1681526020016000815260200160008152602001600081526020016000815260200160008152602001606081525090565b6000828152600e602090815260409182902082516101008101845281548152600182015460ff16818401526002820154818501526003820154606082015260048201546080820152600582015460a0820152600682015460c08201526007820180548551818602810186019096528086529194929360e0860193929083018282801561178157602002820191906000526020600020906000905b825461010083900a900460ff168152602060019283018181049485019490930390920291018084116117525790505b5050505050815250509050919050565b606060018054610486906135d5565b6001600160a01b0382163314156117f95760405162461bcd60e51b815260206004820152601960248201527f4552433732313a20617070726f766520746f2063616c6c657200000000000000604482015260640161057e565b3360008181526005602090815260408083206001600160a01b03871680855290835292819020805460ff191686151590811790915590519081529192917f17307eab39ab6107e8899845ad3d59bd9653f200f220920489ca2b5937696c31910160405180910390a35050565b61186d612bae565b60006118788361166d565b905060008160e001515167ffffffffffffffff8111156118a857634e487b7160e01b600052604160045260246000fd5b60405190808252806020026020018201604052801561191357816020015b6119006040805160c08101909152606081526020810160008152602001600081526020016000815260200160008152602001600081525090565b8152602001906001900390816118c65790505b50905060005b8260e001515181101561199b5761195d8360e00151828151811061194d57634e487b7160e01b600052603260045260246000fd5b602002602001015160ff16611e05565b82828151811061197d57634e487b7160e01b600052603260045260246000fd5b6020026020010181905250808061199390613610565b915050611919565b5060006119bb6119ae846000015161154b565b846020015160ff16611b98565b9050604051806101e0016040528084600001518152602001846020015160ff1681526020018460400151815260200184606001518152602001846080015181526020018460a0015181526020018460c00151815260200182600001516003811115611a3657634e487b7160e01b600052602160045260246000fd5b8152602001826020015181526020018260400151815260200182606001518152602001826080015181526020018260a0015181526020018260c001518152602001838152509350505050919050565b611a8f338361205c565b611aab5760405162461bcd60e51b815260040161057e906131a6565b611ab7848484846124f3565b50505050565b6000818152600260205260409020546060906001600160a01b0316611b3c5760405162461bcd60e51b815260206004820152602f60248201527f4552433732314d657461646174613a2055524920717565727920666f72206e6f60448201526e3732bc34b9ba32b73a103a37b5b2b760891b606482015260840161057e565b6000611b46612526565b90506000815111611b665760405180602001604052806000815250611b91565b80611b7084612535565b604051602001611b819291906130b5565b6040516020818303038152906040525b9392505050565b611bd96040805160e0810190915280600081526020016000815260200160008152602001600081526020016000815260200160008152602001600081525090565b611c1a6040805160e0810190915280600081526020016000815260200160008152602001600081526020016000815260200160008152602001600081525090565b835181906003811115611c3d57634e487b7160e01b600052602160045260246000fd5b90816003811115611c5e57634e487b7160e01b600052602160045260246000fd5b9052506020808501510151611c7561010085613514565b6020808701518051910151611c8a9190613592565b611c94919061354a565b611c9e91906134d7565b60208083019190915260408501510151611cba61010085613514565b60408601518051602090910151611cd19190613592565b611cdb919061354a565b611ce591906134d7565b6040820152606084015160200151611cff61010085613514565b60608601518051602090910151611d169190613592565b611d20919061354a565b611d2a91906134d7565b6060820152608084015160200151611d4461010085613514565b60808601518051602090910151611d5b9190613592565b611d65919061354a565b611d6f91906134d7565b608082015260a084015160200151611d8961010085613514565b60a08601518051602090910151611da09190613592565b611daa919061354a565b611db491906134d7565b60a082015260c084015160200151611dce61010085613514565b60c08601518051602090910151611de59190613592565b611def919061354a565b611df991906134d7565b60c08201529392505050565b611e3f6040805160c08101909152606081526020810160008152602001600081526020016000815260200160008152602001600081525090565b60108260048110611e6057634e487b7160e01b600052603260045260246000fd5b600502016040518060c0016040529081600082018054611e7f906135d5565b80601f0160208091040260200160405190810160405280929190818152602001828054611eab906135d5565b8015611ef85780601f10611ecd57610100808354040283529160200191611ef8565b820191906000526020600020905b815481529060010190602001808311611edb57829003601f168201915b5050509183525050600182015460209091019060ff166003811115611f2d57634e487b7160e01b600052602160045260246000fd5b6003811115611f4c57634e487b7160e01b600052602160045260246000fd5b81526020016001820160019054906101000a900460ff166001811115611f8257634e487b7160e01b600052602160045260246000fd5b6001811115611fa157634e487b7160e01b600052602160045260246000fd5b8152600282015460208201526003820154604082015260049091015460609091015292915050565b60006001600160e01b0319821663780e9d6360e01b148061047157506104718261264f565b600081815260046020526040902080546001600160a01b0319166001600160a01b038416908117909155819061202382610e32565b6001600160a01b03167f8c5be1e5ebec7d5bd14f71427d1e84f3dd0314c0f7b2291e5b200ac8c7c3b92560405160405180910390a45050565b6000818152600260205260408120546001600160a01b03166120d55760405162461bcd60e51b815260206004820152602c60248201527f4552433732313a206f70657261746f7220717565727920666f72206e6f6e657860448201526b34b9ba32b73a103a37b5b2b760a11b606482015260840161057e565b60006120e083610e32565b9050806001600160a01b0316846001600160a01b0316148061211b5750836001600160a01b031661211084610509565b6001600160a01b0316145b8061214b57506001600160a01b0380821660009081526005602090815260408083209388168352929052205460ff165b949350505050565b826001600160a01b031661216682610e32565b6001600160a01b0316146121ce5760405162461bcd60e51b815260206004820152602960248201527f4552433732313a207472616e73666572206f6620746f6b656e2074686174206960448201526839903737ba1037bbb760b91b606482015260840161057e565b6001600160a01b0382166122305760405162461bcd60e51b8152602060048201526024808201527f4552433732313a207472616e7366657220746f20746865207a65726f206164646044820152637265737360e01b606482015260840161057e565b61223b83838361269f565b612246600082611fee565b6001600160a01b038316600090815260036020526040812080546001929061226f908490613592565b90915550506001600160a01b038216600090815260036020526040812080546001929061229d9084906134d7565b909155505060008181526002602052604080822080546001600160a01b0319166001600160a01b0386811691821790925591518493918716917fddf252ad1be2c89b69c2b068fc378daa952ba7f163c4a11628f55a4df523b3ef91a4505050565b600061230982610e32565b90506123178160008461269f565b612322600083611fee565b6001600160a01b038116600090815260036020526040812080546001929061234b908490613592565b909155505060008281526002602052604080822080546001600160a01b0319169055518391906001600160a01b038416907fddf252ad1be2c89b69c2b068fc378daa952ba7f163c4a11628f55a4df523b3ef908390a45050565b6001600160a01b0382166123fb5760405162461bcd60e51b815260206004820181905260248201527f4552433732313a206d696e7420746f20746865207a65726f2061646472657373604482015260640161057e565b6000818152600260205260409020546001600160a01b0316156124605760405162461bcd60e51b815260206004820152601c60248201527f4552433732313a20746f6b656e20616c7265616479206d696e74656400000000604482015260640161057e565b61246c6000838361269f565b6001600160a01b03821660009081526003602052604081208054600192906124959084906134d7565b909155505060008181526002602052604080822080546001600160a01b0319166001600160a01b03861690811790915590518392907fddf252ad1be2c89b69c2b068fc378daa952ba7f163c4a11628f55a4df523b3ef908290a45050565b6124fe848484612153565b61250a848484846126aa565b611ab75760405162461bcd60e51b815260040161057e90613154565b6060600b8054610486906135d5565b6060816125595750506040805180820190915260018152600360fc1b602082015290565b8160005b8115612583578061256d81613610565b915061257c9050600a83613514565b915061255d565b60008167ffffffffffffffff8111156125ac57634e487b7160e01b600052604160045260246000fd5b6040519080825280601f01601f1916602001820160405280156125d6576020820181803683370190505b5090505b841561214b576125eb600183613592565b91506125f8600a8661362b565b6126039060306134d7565b60f81b81838151811061262657634e487b7160e01b600052603260045260246000fd5b60200101906001600160f81b031916908160001a905350612648600a86613514565b94506125da565b60006001600160e01b031982166380ac58cd60e01b148061268057506001600160e01b03198216635b5e139f60e01b145b8061047157506301ffc9a760e01b6001600160e01b0319831614610471565b6106b48383836127b7565b60006001600160a01b0384163b156127ac57604051630a85bd0160e11b81526001600160a01b0385169063150b7a02906126ee903390899088908890600401613104565b602060405180830381600087803b15801561270857600080fd5b505af1925050508015612738575060408051601f3d908101601f1916820190925261273591810190612ebb565b60015b612792573d808015612766576040519150601f19603f3d011682016040523d82523d6000602084013e61276b565b606091505b50805161278a5760405162461bcd60e51b815260040161057e90613154565b805181602001fd5b6001600160e01b031916630a85bd0160e11b14905061214b565b506001949350505050565b6001600160a01b0383166128125761280d81600880546000838152600960205260408120829055600182018355919091527ff3f7a9fe364faab93b216da50a3214154f22a0a2b415b23a84c8169e8b636ee30155565b612835565b816001600160a01b0316836001600160a01b03161461283557612835838261286f565b6001600160a01b03821661284c576106b48161290c565b826001600160a01b0316826001600160a01b0316146106b4576106b482826129e5565b6000600161287c846114c4565b6128869190613592565b6000838152600760205260409020549091508082146128d9576001600160a01b03841660009081526006602090815260408083208584528252808320548484528184208190558352600790915290208190555b5060009182526007602090815260408084208490556001600160a01b039094168352600681528383209183525290812055565b60085460009061291e90600190613592565b6000838152600960205260408120546008805493945090928490811061295457634e487b7160e01b600052603260045260246000fd5b90600052602060002001549050806008838154811061298357634e487b7160e01b600052603260045260246000fd5b60009182526020808320909101929092558281526009909152604080822084905585825281205560088054806129c957634e487b7160e01b600052603160045260246000fd5b6001900381819060005260206000200160009055905550505050565b60006129f0836114c4565b6001600160a01b039093166000908152600660209081526040808320868452825280832085905593825260079052919091209190915550565b82805482825590600052602060002090601f01602090048101928215612abf5791602002820160005b83821115612a9057835183826101000a81548160ff021916908360ff1602179055509260200192600101602081600001049283019260010302612a52565b8015612abd5782816101000a81549060ff0219169055600101602081600001049283019260010302612a90565b505b50612acb929150612c46565b5090565b6040805160e081019091528060008152602001612aff604051806040016040528060008152602001600081525090565b8152602001612b21604051806040016040528060008152602001600081525090565b8152602001612b43604051806040016040528060008152602001600081525090565b8152602001612b65604051806040016040528060008152602001600081525090565b8152602001612b87604051806040016040528060008152602001600081525090565b8152602001612ba9604051806040016040528060008152602001600081525090565b905290565b604051806101e0016040528060008152602001600060ff168152602001600081526020016000815260200160008152602001600081526020016000815260200160006003811115612c0f57634e487b7160e01b600052602160045260246000fd5b8152602001600081526020016000815260200160008152602001600081526020016000815260200160008152602001606081525090565b5b80821115612acb5760008155600101612c47565b80356001600160a01b0381168114612c7257600080fd5b919050565b803560048110612c7257600080fd5b600060408284031215612c97578081fd5b6040516040810181811067ffffffffffffffff82111715612cba57612cba613681565b604052823581526020928301359281019290925250919050565b600060208284031215612ce5578081fd5b611b9182612c5b565b60008060408385031215612d00578081fd5b612d0983612c5b565b9150612d1760208401612c5b565b90509250929050565b600080600060608486031215612d34578081fd5b612d3d84612c5b565b9250612d4b60208501612c5b565b9150604084013590509250925092565b60008060008060808587031215612d70578081fd5b612d7985612c5b565b93506020612d88818701612c5b565b935060408601359250606086013567ffffffffffffffff80821115612dab578384fd5b818801915088601f830112612dbe578384fd5b813581811115612dd057612dd0613681565b612de2601f8201601f191685016134a6565b91508082528984828501011115612df7578485fd5b8084840185840137810190920192909252939692955090935050565b60008060408385031215612e25578182fd5b612e2e83612c5b565b915060208301358015158114612e42578182fd5b809150509250929050565b60008060408385031215612e5f578182fd5b612e6883612c5b565b9150612d1760208401612c77565b60008060408385031215612e88578182fd5b612e9183612c5b565b946020939093013593505050565b600060208284031215612eb0578081fd5b8135611b91816136a7565b600060208284031215612ecc578081fd5b8151611b91816136a7565b6000808284036101c0811215612eeb578283fd5b6101a080821215612efa578384fd5b612f0261347d565b9150612f0d85612c77565b8252612f1c8660208701612c86565b6020830152612f2e8660608701612c86565b6040830152612f408660a08701612c86565b6060830152612f528660e08701612c86565b6080830152612f65866101208701612c86565b60a0830152612f78866101608701612c86565b60c0830152909593013593505050565b600060208284031215612f99578081fd5b5035919050565b60008060408385031215612fb2578182fd5b50508035926020909101359150565b6000815180845260208085019450848260051b8601828601855b85811015613005578383038952612ff383835161304b565b98850198925090840190600101612fdb565b5090979650505050505050565b6000815180845261302a8160208601602086016135a9565b601f01601f19169290920160200192915050565b61304781613697565b9052565b6000815160c0845261306060c0850182613012565b9050602083015161307081613697565b602085015260408301516002811061308a5761308a61366b565b6040850152606083810151908501526080808401519085015260a09283015192909301919091525090565b600083516130c78184602088016135a9565b8351908301906130db8183602088016135a9565b01949350505050565b91825260601b6bffffffffffffffffffffffff1916602082015260340190565b6001600160a01b038581168252841660208201526040810183905260806060820181905260009061313790830184613012565b9695505050505050565b602081526000611b916020830184613012565b60208082526032908201527f4552433732313a207472616e7366657220746f206e6f6e20455243373231526560408201527131b2b4bb32b91034b6b83632b6b2b73a32b960711b606082015260800190565b60208082526031908201527f4552433732313a207472616e736665722063616c6c6572206973206e6f74206f6040820152701ddb995c881b9bdc88185c1c1c9bdd9959607a1b606082015260800190565b602081526000611b91602083018461304b565b81516101a082019061321b81613697565b82526020838101518051828501529081015160408401525060408301518051606084015260208101516080840152506060830151805160a0840152602081015160c0840152506080830151805160e084015260208101516101008401525060a0830151805161012084015260208101516101408401525060c0830151805161016084015260208101516101808401525092915050565b6020815281516020820152600060208301516132d2604084018260ff169052565b506040830151606083015260608301516080830152608083015160a083015260a083015160c083015260c083015160e083015260e08301516101006133198185018361303e565b840151610120848101919091528401516101408085019190915284015161016080850191909152840151610180808501919091528401516101a0808501919091528401516101c0808501919091528401516101e080850152905061214b610200840182612fc1565b6000602080835261012083018451828501528185015160ff80821660408701526040870151606087015260608701516080870152608087015160a087015260a087015160c087015260c087015160e087015260e087015191506101008081880152508282518085526101408801915085840194508693505b8084101561341b578451831682529385019360019390930192908501906133f9565b50979650505050505050565b815160e082019061343781613697565b808352506020830151602083015260408301516040830152606083015160608301526080830151608083015260a083015160a083015260c083015160c083015292915050565b60405160e0810167ffffffffffffffff811182821017156134a0576134a0613681565b60405290565b604051601f8201601f1916810167ffffffffffffffff811182821017156134cf576134cf613681565b604052919050565b600082198211156134ea576134ea61363f565b500190565b600060ff821660ff84168060ff0382111561350c5761350c61363f565b019392505050565b60008261352357613523613655565b500490565b600060ff83168061353b5761353b613655565b8060ff84160491505092915050565b60008160001904831182151516156135645761356461363f565b500290565b600060ff821660ff84168160ff048111821515161561358a5761358a61363f565b029392505050565b6000828210156135a4576135a461363f565b500390565b60005b838110156135c45781810151838201526020016135ac565b83811115611ab75750506000910152565b600181811c908216806135e957607f821691505b6020821081141561360a57634e487b7160e01b600052602260045260246000fd5b50919050565b60006000198214156136245761362461363f565b5060010190565b60008261363a5761363a613655565b500690565b634e487b7160e01b600052601160045260246000fd5b634e487b7160e01b600052601260045260246000fd5b634e487b7160e01b600052602160045260246000fd5b634e487b7160e01b600052604160045260246000fd5b60048110610d8e57610d8e61366b565b6001600160e01b031981168114610d8e57600080fdfea26469706673582212200cf5131450cdd5b1a6aa369d406cbc31ce259bcc1c5870a2b5b04974f250b92164736f6c63430008040033",
    "sourcePath": "c:/Users/hbnat/Desktop/cryptures/manager.sol",
    "compiler": {
        "name": "solc",
        "version": "0.8.4+commit.c7e474f2"
    },
    "functionHashes": {
        "buyCrypture(uint8)": "c72b344d",
        "buyCryptureWithToken(uint8)": "66acf656",
        "cherishol()": "b7be6063",
        "cryptures()": "d62277cb",
        "feedCrypture(uint256)": "ff5ee594",
        "requestBattle(uint256,uint256,uint256)": "128ddc0c",
        "washCrypture(uint256)": "745d2d3e"
    },
    "gasEstimates": {
        "creation": {
            "codeDepositCost": "652400",
            "executionCost": "infinite",
            "totalCost": "infinite"
        },
        "external": {
            "buyCrypture(uint8)": "infinite",
            "buyCryptureWithToken(uint8)": "infinite",
            "cherishol()": "1025",
            "cryptures()": "1069",
            "feedCrypture(uint256)": "infinite",
            "requestBattle(uint256,uint256,uint256)": "infinite",
            "washCrypture(uint256)": "infinite"
        }
    }
}